:020000040800F2
:100000007806002029020008C90C0008A10A00088F
:10001000C50C0008D50300089D0D00080000000075
:10002000000000000000000000000000D10C0008EB
:10003000D903000800000000CD0C0008D50C000812
:10004000430200084302000843020008430200087C
:10005000430200084302000843020008430200086C
:10006000430200084302000843020008430200085C
:10007000430200084302000843020008430200084C
:10008000430200084302000843020008430200083C
:10009000430200084302000843020008430200082C
:1000A000430200084302000843020008430200081C
:1000B000430200084302000843020008430200080C
:1000C00043020008430200084302000843020008FC
:1000D00043020008430200084302000843020008EC
:1000E00043020008430200084302000843020008DC
:1000F00043020008430200084302000843020008CC
:1001000043020008430200084302000843020008BB
:1001100043020008430200084302000843020008AB
:10012000430200084302000843020008430200089B
:10013000430200084302000843020008430200088B
:10014000430200084302000843020008430200087B
:10015000430200084302000843020008430200086B
:10016000430200084302000843020008430200085B
:100170004302000843020008430200080000000098
:10018000430200084302000800F002F800F03CF8C7
:100190000AA090E8000C82448344AAF10107DA45E2
:1001A00001D100F031F8AFF2090EBAE80F0013F0F8
:1001B000010F18BFFB1A43F0010318472C0D000074
:1001C0004C0D0000103A24BF78C878C1FAD8520705
:1001D00024BF30C830C144BF04680C6070470000C1
:1001E0000023002400250026103A28BF78C1FBD840
:1001F000520728BF30C148BF0B6070471FB500F0E1
:100200005EFE1FBD10B510BD00F0A9F81146FFF746
:10021000F5FF00F0C5FD00F0C7F803B4FFF7F2FFEB
:1002200003BC00F0CFF800000948804709480047A8
:10023000FEE7FEE7FEE7FEE7FEE7FEE7FEE7FEE796
:10024000FEE7FEE704480549054A064B70470000F3
:10025000890D000889010008780000207806002038
:10026000780200207802002053EA020C00F0698036
:100270002DE9F04B4FF00006002B1FBFB3FA83F5BA
:1002800003FA05F424FA05F65E4012BF1643B2FAEB
:1002900082F502FA05F4C5F120051EBF22FA05FC1D
:1002A00044EA0C04203556EA044C4FEA144418BFC3
:1002B000641C4FF000084FF00009904271EB030CF2
:1002C00039D3002919BFB1FA81F701FA07F6B0FA5C
:1002D00080F700FA07F6C7F120071EBF20FA07FCD7
:1002E00046EA0C062037B6FBF4FCA7EB0507103FE7
:1002F00007F01F0BCBF120062CFA06F60CFA0BFBCD
:1003000044BFB3460026202FA4BF5E464FF0000B2B
:100310005BEA060C08BF4FF0010B19EB0B0948EB29
:100320000608ABFB027C06FB02CC0BFB03CCC01B1C
:1003300071EB0C01C1E70B46024641464846BDE859
:10034000F08B13B5084318BF4FF0FF300146AFF3F1
:100350000080BDE81C407047704770477047754685
:1003600000F02CF8AE4605006946534620F0070021
:10037000854618B020B5FFF765FFBDE820404FF077
:1003800000064FF000074FF000084FF0000BAC469E
:10039000ACE8C009ACE8C009ACE8C009ACE8C009E9
:1003A00021F007018D46704710B50446AFF3008079
:1003B0002046BDE81040FFF730BF000000487047FE
:1003C0001000002001491820ABBEFEE72600020005
:1003D00070470000FEE700007047000040F2700028
:1003E000C2F200000068704740F2000040F2700165
:1003F000C2F20000C2F2000100780A6810440860EE
:100400007047000080B543F60040C4F20200016866
:1004100041F400710160016841F48061016001688C
:1004200041F480710160032000F074F80F2000F0A7
:1004300005F800F027F8002080BD000070B540F2FC
:100440000006C2F2000640F208013278C2F2000152
:100450004FF47A730968B3FBF2F20446B1FBF2F190
:10046000084600F007FB0F2C4FF0010508D838B9FB
:100470004FF0FF3021460022002500F01FF8746085
:10048000284670BD82B0002043F640010190C4F2BE
:1004900002014A6842F480424A604A6802F480429B
:1004A0000192019A0090086840F080500860086846
:1004B00000F080500090009802B0704710B54EF6E2
:1004C0000C5CCEF2000CDCF80030C3F3022E8EF090
:1004D0000704042C28BF0424BEF103034FF0FF3EA1
:1004E0000EFA04F438BF0023A14399400EFA03F337
:1004F0009A43114300F00F0200F160430901043AEE
:1005000003F564436244002848BF02F10C031970EC
:1005100010BD00004EF60C51CEF200010A684FF6F5
:10052000FF031A4060F30A2242F0806040F0FD7041
:10053000086070472DE9F041002800F08B8043F6F9
:100540000808C4F202080446D8F8F8030D4600F083
:100550000700884207D288F8F853D8F8F80300F06B
:100560000700A84276D12068810717D5410705D535
:10057000D8F8001041F4E051C8F80010010705D583
:10058000D8F8001041F46041C8F80010D8F8001005
:10059000A26821F0F0011143C8F80010C0073FD154
:1005A000D8F8F80300F00700A84207D988F8F853F4
:1005B000D8F8F80300F00700A8424BD120684107A3
:1005C00007D5D8F80010E26821F4E0511143C8F8CB
:1005D0000010000708D5D8F80000216920F4604019
:1005E00040EAC100C8F8000000F054F8D8F8001044
:1005F00040F6D862C1F30311C0F60002515C40F22C
:10060000080220FA01F140F20400C2F20000006882
:10061000C2F200021160FFF711FF0020BDE8F08177
:100620006068811E022907D258F8081C89015CBF46
:100630000120BDE8F08111E0012807D158F8081C1D
:1006400089035CBF0120BDE8F08107E058F8081C71
:10065000890703D40120BDE8F08100BFD8F800105D
:1006600021F003010843C8F80000FFF7B7FE064673
:1006700041F28837D8F80000616800F00C00B0EB58
:10068000810F8DD0FFF7AAFE801BB842F2D903205C
:10069000BDE8F08110B543F60404C4F202046068BA
:1006A00000F00C0142F200400829C0F2F40007D02B
:1006B000042918BF10BD41F20020C0F27A0010BD1D
:1006C000216801F03F02216823684902C3F38811C1
:1006D00006D4A1FB00010023FFF7C6FD07E000BF21
:1006E00041F20020C0F27A004843B0FBF2F02168EA
:1006F0000222C1F3014102EB4101B0FBF1F010BD58
:100700002DE9F04182B0002868D00446007843F615
:100710000006C007C4F202060BD0B06800F00C005F
:10072000042840F09F803068800302D5606800286C
:1007300054D0207880071AD5B06810F00C0F09D07B
:10074000B06800F00C00082840F0A68070684002F5
:1007500000F1A2803068800702D5E06801283DD111
:100760003068216920F0F80040EAC100306020784C
:10077000000737D4207840074CD4A56955B3B0683A
:1007800000F00C00082840F0BB80012D26D07068D6
:10079000E16900F480028A4220D1216A00F03F0220
:1007A0008A421BD147F6C071626A0140B1EB821FD9
:1007B00014D1A16A4FF6FF73C903994300F4403284
:1007C000A1F580318A4209D1E16A00F07060B0EB96
:1007D000016F03D1002002B0BDE8F081012002B01A
:1007E000BDE8F0816069002840F20000C4F24720B3
:1007F00076D00121C0F8801EFFF7F0FD054600BF4E
:10080000706F8007B6D4FFF7E9FD401B0228F7D9C7
:10081000DDE000BF306C10F080580AD1002001905C
:10082000306C40F080503064306C00F080500190AB
:10083000019847F20007C4F200073868C00541D4A8
:10084000386840F480703860FFF7C8FD054600BF87
:100850003868C00536D4FFF7C1FD401B0228F7D920
:10086000B5E000BFB06800F00C00082803D1706844
:1008700040023FF558AF6068B0F5803F07D0B0F553
:10088000A02F40F08D80306840F4802030603068C8
:1008900040F4803030608DE0E068002852D00020C5
:1008A000C4F2472001210160FFF798FD054600BF13
:1008B000306880073FF554AFFFF790FD401B0228DA
:1008C000F6D984E0A068012805D005284ED1306F04
:1008D00040F004003067306F40F0010030674FE0B7
:1008E0000021C0F8801EFFF779FD0546706F800774
:1008F0007FF540AFFFF772FD401B0228F6D966E096
:100900000027C4F2472700203866FFF767FD022D55
:1009100005460BD1306880015ED5FFF75FFD401BB7
:1009200002284FF00300F5D955E700BF3068800179
:100930007FF550AFFFF752FD401B02284FF0030038
:10094000F4D948E70020C4F2472000210160FFF7F6
:1009500045FD0546306880077FF509AFFFF73EFD8E
:10096000401B02284FF00300F4D934E7316F002810
:1009700021F001013167316F21F0040131674DD061
:10098000FFF72CFD054641F2883700BF306F800726
:1009900056D4FFF723FD401BB842F7D917E000BF3C
:1009A0003168002821F480313160316821F48021E0
:1009B00031604FD0FFF712FD054600BF306880035D
:1009C0003FF5B7AEFFF70AFD401B6428F6D90320B8
:1009D00002B0BDE8F08100BF04F11C052FCD084333
:1009E00040EA8210D9034FF6FF729143A1F580319E
:1009F00040EA05600843706001203866FFF7EEFCAE
:100A0000044600BF306880013FF5E4AEFFF7E6FC26
:100A1000001B02284FF00300F4D9DCE6FFF7DEFCF0
:100A2000054641F2883700BF306F800708D5FFF7D1
:100A3000D5FC401BB8424FF00300F5D9CBE600BF10
:100A4000B8F1000F7FF499AE306C20F08050306424
:100A500093E600BFFFF7C2FC054600BF3068800385
:100A60007FF567AEFFF7BAFC401B64284FF0030028
:100A7000F4D9B0E6411E0020B0EB116F1CBF01207D
:100A800070474EF21002CEF2000251604EF6235132
:100A9000CEF20001F0230B700721906011607047C7
:100AA000FEE700002DE9F04F0E6896FAA6F2B2FAC2
:100AB00082F236FA02F365D04FF001084FF0030CD2
:100AC0000CE000BFD1E900630768AB4007EA0A0702
:100AD0003B430360013236FA02F353D008FA02F3C3
:100AE00016EA0304F6D0D1F804E0AEF10103022BBC
:100AF0001CD294FAA4F5B5FA85F6D0F808907500E2
:100B0000D1E902AB0CFA05F329EA03090AFA05F761
:100B100047EA0907876047686FEA030A27EA04097A
:100B20000BFB04F747EA0907476008E094FAA4F3CF
:100B3000B3FA83F675000CFA05F36FEA030A0F693E
:100B4000C368AF4003EA0A033B43BEF1020FC36030
:100B5000B8D1E3B2240AD1F814E094FAA4F4002B3B
:100B600008BFB4FA84F64FF0200308BF2423C4580A
:100B7000B6000F27B740BC430EFA06F72743C7500D
:100B8000A0E700BF0020BDE8F08F000080B540F670
:100B9000FF3E0368C4F2000E40F2004C024670456E
:100BA000C4F2010C26DCB2F1804F30D040F200409C
:100BB000C4F2000082422AD040F60000C4F20000D5
:100BC000824224D041F6FF70C4F20000824228DC49
:100BD00072453BDCB2F1804F5ED040F20040C4F27F
:100BE0000000824258D040F60000C4F20000824269
:100BF00052D055E040F60040C4F20000824206D0D8
:100C0000624504D00020C4F201008242DAD1486873
:100C100023F07003034341F6FF70C4F200008242E8
:100C2000D6DD43F6FF70C4F20100824222DC42F2BC
:100C30000000C4F2000082422ED00020C4F2010065
:100C4000824229D0624527D02AE000BF40F600400A
:100C5000C4F2000082421FD041F60000C4F200003E
:100C6000824219D041F60040C4F20000824213D003
:100C700016E000BF44F20000C4F2010082420BD033
:100C800044F60000C4F20100824205D044F2004064
:100C9000C4F20100824203D1C86823F440730343C5
:100CA0001360886842F48063D0620888634590626C
:100CB00004BF08691063506940F0010100205161D0
:100CC00080BD0000FEE70000FEE700007047000066
:100CD00070470000FFF788BBB0B592B0002443F620
:100CE00040000B94CDE90944CDE907440594CDE9D2
:100CF0000344CDE901440094C4F2020001680225D6
:100D000041F080510160006800F080500090009830
:100D100047F200000094C4F20000016841F48041F1
:100D20000160006800F48040009000980120099064
:100D300010200A9008200E906020CDE90F050420B5
:100D4000119006A80695CDE90C54FFF7D9FC28B1FF
:100D5000EFF3108072B600BFFEE700BF0F20CDE9B1
:100D60000105802003904FF48050CDE9040401A8D0
:100D70000121FFF7DFFB28B1EFF3108072B600BF4F
:100D8000FEE700BF12B0B0BD4EF68850CEF20000B4
:100D9000016841F47001016070470000FEE7000047
:100DA00088B040F6184540F60004C4F20205C4F2CB
:100DB0000004FFF727FBFFF78FFF002743F63006FD
:100DC0000697C4F20206306801A940F08000306046
:100DD000306800F0800007900798306840F0080005
:100DE0003060306800F0080007900798306840F0E5
:100DF00001003060306800F00100079007984FF064
:100E0000005028604FF4005001900120CDE9020706
:100E100004F50130CDE90477FFF744FE0597CDE9ED
:100E20000377CDE90177306901A940F00400306112
:100E3000306900F00400079007984BF68030ADF859
:100E4000040040F2F31003902046FFF79FFE206855
:100E500044F2070120F080002060A0688843A06071
:100E600060686FF0010120F070006060A06820F001
:100E70008000A0604FF4FA700AE000BF216155F8CD
:100E8000042C02F4005242EA024282F400522A6028
:100E9000E062226822F002022260226842F001022F
:100EA00022602269D207E9D12269D20704BF2269F0
:100EB0005FEAC272E2D12269D207F2D0DEE7F1EE38
:100EC000100A4FF6FF71C0F2C03120EA010040F075
:100ED0004070E1EE100A70470000000000000000C2
:100EE0000102030406070809080F0008000000209B
:100EF00010000000C4010008180F000810000020B6
:100F000068060000E0010008010000001000000079
:080F10000024F40000000000C1
:040000050800018965
:00000001FF
